{
  "_format": "hh-sol-artifact-1",
  "contractName": "ChessTournamentImpl",
  "sourceName": "contracts/ChessTournamentImpl.sol",
  "abi": [
    {
      "inputs": [],
      "name": "InvalidInitialization",
      "type": "error"
    },
    {
      "inputs": [],
      "name": "NotInitializing",
      "type": "error"
    },
    {
      "inputs": [
        {
          "internalType": "address",
          "name": "owner",
          "type": "address"
        }
      ],
      "name": "OwnableInvalidOwner",
      "type": "error"
    },
    {
      "inputs": [
        {
          "internalType": "address",
          "name": "account",
          "type": "address"
        }
      ],
      "name": "OwnableUnauthorizedAccount",
      "type": "error"
    },
    {
      "anonymous": false,
      "inputs": [
        {
          "indexed": false,
          "internalType": "uint64",
          "name": "version",
          "type": "uint64"
        }
      ],
      "name": "Initialized",
      "type": "event"
    },
    {
      "anonymous": false,
      "inputs": [
        {
          "indexed": true,
          "internalType": "address",
          "name": "previousOwner",
          "type": "address"
        },
        {
          "indexed": true,
          "internalType": "address",
          "name": "newOwner",
          "type": "address"
        }
      ],
      "name": "OwnershipTransferred",
      "type": "event"
    },
    {
      "inputs": [
        {
          "components": [
            {
              "internalType": "bytes32[]",
              "name": "merkleProof",
              "type": "bytes32[]"
            },
            {
              "components": [
                {
                  "internalType": "bytes32",
                  "name": "attestationType",
                  "type": "bytes32"
                },
                {
                  "internalType": "bytes32",
                  "name": "sourceId",
                  "type": "bytes32"
                },
                {
                  "internalType": "uint64",
                  "name": "votingRound",
                  "type": "uint64"
                },
                {
                  "internalType": "uint64",
                  "name": "lowestUsedTimestamp",
                  "type": "uint64"
                },
                {
                  "components": [
                    {
                      "internalType": "string",
                      "name": "url",
                      "type": "string"
                    },
                    {
                      "internalType": "string",
                      "name": "postprocessJq",
                      "type": "string"
                    },
                    {
                      "internalType": "string",
                      "name": "abi_signature",
                      "type": "string"
                    }
                  ],
                  "internalType": "struct IJsonApi.RequestBody",
                  "name": "requestBody",
                  "type": "tuple"
                },
                {
                  "components": [
                    {
                      "internalType": "bytes",
                      "name": "abi_encoded_data",
                      "type": "bytes"
                    }
                  ],
                  "internalType": "struct IJsonApi.ResponseBody",
                  "name": "responseBody",
                  "type": "tuple"
                }
              ],
              "internalType": "struct IJsonApi.Response",
              "name": "data",
              "type": "tuple"
            }
          ],
          "internalType": "struct IJsonApi.Proof",
          "name": "data",
          "type": "tuple"
        },
        {
          "internalType": "string",
          "name": "_playerName",
          "type": "string"
        }
      ],
      "name": "addPlayer",
      "outputs": [],
      "stateMutability": "payable",
      "type": "function"
    },
    {
      "inputs": [],
      "name": "fee",
      "outputs": [
        {
          "internalType": "uint256",
          "name": "",
          "type": "uint256"
        }
      ],
      "stateMutability": "view",
      "type": "function"
    },
    {
      "inputs": [
        {
          "components": [
            {
              "internalType": "bytes32[]",
              "name": "merkleProof",
              "type": "bytes32[]"
            },
            {
              "components": [
                {
                  "internalType": "bytes32",
                  "name": "attestationType",
                  "type": "bytes32"
                },
                {
                  "internalType": "bytes32",
                  "name": "sourceId",
                  "type": "bytes32"
                },
                {
                  "internalType": "uint64",
                  "name": "votingRound",
                  "type": "uint64"
                },
                {
                  "internalType": "uint64",
                  "name": "lowestUsedTimestamp",
                  "type": "uint64"
                },
                {
                  "components": [
                    {
                      "internalType": "string",
                      "name": "url",
                      "type": "string"
                    },
                    {
                      "internalType": "string",
                      "name": "postprocessJq",
                      "type": "string"
                    },
                    {
                      "internalType": "string",
                      "name": "abi_signature",
                      "type": "string"
                    }
                  ],
                  "internalType": "struct IJsonApi.RequestBody",
                  "name": "requestBody",
                  "type": "tuple"
                },
                {
                  "components": [
                    {
                      "internalType": "bytes",
                      "name": "abi_encoded_data",
                      "type": "bytes"
                    }
                  ],
                  "internalType": "struct IJsonApi.ResponseBody",
                  "name": "responseBody",
                  "type": "tuple"
                }
              ],
              "internalType": "struct IJsonApi.Response",
              "name": "data",
              "type": "tuple"
            }
          ],
          "internalType": "struct IJsonApi.Proof",
          "name": "data",
          "type": "tuple"
        }
      ],
      "name": "finishTournament",
      "outputs": [],
      "stateMutability": "nonpayable",
      "type": "function"
    },
    {
      "inputs": [],
      "name": "getPlayers",
      "outputs": [
        {
          "internalType": "string[]",
          "name": "",
          "type": "string[]"
        }
      ],
      "stateMutability": "view",
      "type": "function"
    },
    {
      "inputs": [
        {
          "internalType": "address",
          "name": "_organizer",
          "type": "address"
        },
        {
          "internalType": "string",
          "name": "_url",
          "type": "string"
        },
        {
          "internalType": "uint256",
          "name": "_fee",
          "type": "uint256"
        }
      ],
      "name": "initialize",
      "outputs": [],
      "stateMutability": "nonpayable",
      "type": "function"
    },
    {
      "inputs": [],
      "name": "owner",
      "outputs": [
        {
          "internalType": "address",
          "name": "",
          "type": "address"
        }
      ],
      "stateMutability": "view",
      "type": "function"
    },
    {
      "inputs": [
        {
          "internalType": "address",
          "name": "",
          "type": "address"
        }
      ],
      "name": "playerAddressToPlayerName",
      "outputs": [
        {
          "internalType": "string",
          "name": "",
          "type": "string"
        }
      ],
      "stateMutability": "view",
      "type": "function"
    },
    {
      "inputs": [
        {
          "internalType": "string",
          "name": "",
          "type": "string"
        }
      ],
      "name": "playerNameToPlayerAddress",
      "outputs": [
        {
          "internalType": "address",
          "name": "",
          "type": "address"
        }
      ],
      "stateMutability": "view",
      "type": "function"
    },
    {
      "inputs": [
        {
          "internalType": "uint256",
          "name": "",
          "type": "uint256"
        }
      ],
      "name": "playerNames",
      "outputs": [
        {
          "internalType": "string",
          "name": "",
          "type": "string"
        }
      ],
      "stateMutability": "view",
      "type": "function"
    },
    {
      "inputs": [],
      "name": "prize",
      "outputs": [
        {
          "internalType": "uint256",
          "name": "",
          "type": "uint256"
        }
      ],
      "stateMutability": "view",
      "type": "function"
    },
    {
      "inputs": [],
      "name": "prizeSent",
      "outputs": [
        {
          "internalType": "bool",
          "name": "",
          "type": "bool"
        }
      ],
      "stateMutability": "view",
      "type": "function"
    },
    {
      "inputs": [],
      "name": "renounceOwnership",
      "outputs": [],
      "stateMutability": "nonpayable",
      "type": "function"
    },
    {
      "inputs": [
        {
          "internalType": "address",
          "name": "newOwner",
          "type": "address"
        }
      ],
      "name": "transferOwnership",
      "outputs": [],
      "stateMutability": "nonpayable",
      "type": "function"
    },
    {
      "inputs": [],
      "name": "url",
      "outputs": [
        {
          "internalType": "string",
          "name": "",
          "type": "string"
        }
      ],
      "stateMutability": "view",
      "type": "function"
    },
    {
      "inputs": [],
      "name": "winner",
      "outputs": [
        {
          "internalType": "string",
          "name": "",
          "type": "string"
        }
      ],
      "stateMutability": "view",
      "type": "function"
    }
  ],
  "bytecode": "0x6080604052348015600f57600080fd5b506118608061001f6000396000f3fe6080604052600436106100e85760003560e01c80637b3411521161008a578063ddca3f4311610059578063ddca3f43146102a4578063dfbf53ae146102c8578063e3ac5d26146102dd578063f2fde38b146102f357600080fd5b80637b341152146102125780638b5b9ccc146102255780638da5cb5b146102475780638dac9bbc1461028457600080fd5b806355cb3535116100c657806355cb35351461019e5780635600f04f146101c85780635fecc103146101dd578063715018a6146101fd57600080fd5b806321b6829f146100ed57806331ad576d1461010f5780633e2b61a214610145575b600080fd5b3480156100f957600080fd5b5061010d610108366004610df5565b610313565b005b34801561011b57600080fd5b5061012f61012a366004610e31565b6104b5565b60405161013c9190610e9a565b60405180910390f35b34801561015157600080fd5b50610186610160366004610fb3565b80516020818301810180516004825292820191909301209152546001600160a01b031681565b6040516001600160a01b03909116815260200161013c565b3480156101aa57600080fd5b506007546101b89060ff1681565b604051901515815260200161013c565b3480156101d457600080fd5b5061012f610561565b3480156101e957600080fd5b5061012f6101f8366004611003565b61056e565b34801561020957600080fd5b5061010d610587565b61010d61022036600461101e565b61059b565b34801561023157600080fd5b5061023a6107ee565b60405161013c9190611081565b34801561025357600080fd5b507f9016d09d72d40fdae2fd8ceac6b6234c7706214fd39c1cd1e609a0528c199300546001600160a01b0316610186565b34801561029057600080fd5b5061010d61029f3660046110e5565b6108c7565b3480156102b057600080fd5b506102ba60015481565b60405190815260200161013c565b3480156102d457600080fd5b5061012f6109e9565b3480156102e957600080fd5b506102ba60025481565b3480156102ff57600080fd5b5061010d61030e366004611003565b6109f6565b61031c81610a34565b61035d5760405162461bcd60e51b815260206004820152600d60248201526c141c9bdbd9881a5b9d985b1a59609a1b60448201526064015b60405180910390fd5b600061036c602083018361113b565b61037a9060a081019061115b565b6103849080611171565b81019061039191906111be565b905080600001518051906020012060006040516103ae9190611319565b6040518091039020146103ff5760405162461bcd60e51b81526020600482015260196024820152780a8deeae4dcc2dacadce840aaa49840daeae6e840dac2e8c6d603b1b6044820152606401610354565b604080518082019091526008815267199a5b9a5cda195960c21b6020918201528181015180519101207f7b33a07f1644fab5bc0af6f7c06c8dceb370139ee7f9ae35b70dfee8eda3c95a146104965760405162461bcd60e51b815260206004820152601d60248201527f546f75726e616d656e74206d75737420686176652066696e69736865640000006044820152606401610354565b60408101516003906104a89082611376565b506104b1610ab5565b5050565b600681815481106104c557600080fd5b9060005260206000200160009150905080546104e090611272565b80601f016020809104026020016040519081016040528092919081815260200182805461050c90611272565b80156105595780601f1061052e57610100808354040283529160200191610559565b820191906000526020600020905b81548152906001019060200180831161053c57829003601f168201915b505050505081565b600080546104e090611272565b600560205260009081526040902080546104e090611272565b61058f610c55565b6105996000610cb0565b565b6105a482610a34565b6105e05760405162461bcd60e51b815260206004820152600d60248201526c141c9bdbd9881a5b9d985b1a59609a1b6044820152606401610354565b60006105ef602084018461113b565b6105fd9060a081019061115b565b6106079080611171565b8101906106149190611435565b905080600001518051906020012060006040516106319190611319565b6040518091039020146106825760405162461bcd60e51b81526020600482015260196024820152780a8deeae4dcc2dacadce840aaa49840daeae6e840dac2e8c6d603b1b6044820152606401610354565b610690816020015183610d21565b6106ec5760405162461bcd60e51b815260206004820152602760248201527f557365726e616d65206e6f7420696e20746f75726e616d656e7420706c6179656044820152661c9cc81b1a5cdd60ca1b6064820152608401610354565b600154341461073d5760405162461bcd60e51b815260206004820152601f60248201527f596f75206e65656420746f2070617920746865206a6f696e696e6720666565006044820152606401610354565b3360048360405161074e919061154a565b908152604080516020928190038301902080546001600160a01b0319166001600160a01b0394909416939093179092553360009081526005909152206107948382611376565b50600680546001810182556000919091527ff652222313e28459528d920b65115c16c04f3efc82aaedc97be59f3f377c0d3f016107d18382611376565b5034600260008282546107e4919061155c565b9091555050505050565b60606006805480602002602001604051908101604052809291908181526020016000905b828210156108be57838290600052602060002001805461083190611272565b80601f016020809104026020016040519081016040528092919081815260200182805461085d90611272565b80156108aa5780601f1061087f576101008083540402835291602001916108aa565b820191906000526020600020905b81548152906001019060200180831161088d57829003601f168201915b505050505081526020019060010190610812565b50505050905090565b7ff0c57e16840df040f15088dc2f81fe391c3923bec73e23a9662efc9c229c6a008054600160401b810460ff1615906001600160401b031660008115801561090c5750825b90506000826001600160401b031660011480156109285750303b155b905081158015610936575080155b156109545760405163f92ee8a960e01b815260040160405180910390fd5b845467ffffffffffffffff19166001178555831561097e57845460ff60401b1916600160401b1785555b600061098a8882611376565b50600186905561099988610d7b565b83156109df57845460ff60401b19168555604051600181527fc7f505b2f371ae2175ee4913f4499e1f2633a7b5936321eed1cdaeb6115181d29060200160405180910390a15b5050505050505050565b600380546104e090611272565b6109fe610c55565b6001600160a01b038116610a2857604051631e4fbdf760e01b815260006004820152602401610354565b610a3181610cb0565b50565b60405163d0f18f8560e01b81526000907307ad8508c9173dc845817472ca0484035abfa3c89063d0f18f8590610a6e908590600401611755565b602060405180830381865afa158015610a8b573d6000803e3d6000fd5b505050506040513d601f19601f82011682018060405250810190610aaf91906117f2565b92915050565b60006001600160a01b031660046003604051610ad19190611319565b908152604051908190036020019020546001600160a01b031603610b375760405162461bcd60e51b815260206004820152601a60248201527f706c617965722073686f756c64206861766520616464726573730000000000006044820152606401610354565b600254471015610b895760405162461bcd60e51b815260206004820152601e60248201527f4e6f7420656e6f7567682062616c616e636520696e20636f6e747261637400006044820152606401610354565b600060046003604051610b9c9190611319565b908152604051908190036020018120546002546001600160a01b039091169160006040518083038185875af1925050503d8060008114610bf8576040519150601f19603f3d011682016040523d82523d6000602084013e610bfd565b606091505b5050905080610c455760405162461bcd60e51b81526020600482015260146024820152734661696c656420746f2073656e64207072697a6560601b6044820152606401610354565b506007805460ff19166001179055565b33610c877f9016d09d72d40fdae2fd8ceac6b6234c7706214fd39c1cd1e609a0528c199300546001600160a01b031690565b6001600160a01b0316146105995760405163118cdaa760e01b8152336004820152602401610354565b7f9016d09d72d40fdae2fd8ceac6b6234c7706214fd39c1cd1e609a0528c19930080546001600160a01b031981166001600160a01b03848116918217845560405192169182907f8be0079c531659141344cd1fd0a4f28419497f9722a3daafe3b4186f6b6457e090600090a3505050565b80516020820120600090815b8451811015610d705781858281518110610d4957610d49611814565b60200260200101518051906020012003610d6857600192505050610aaf565b600101610d2d565b506000949350505050565b610d83610d8c565b610a3181610dd5565b7ff0c57e16840df040f15088dc2f81fe391c3923bec73e23a9662efc9c229c6a0054600160401b900460ff1661059957604051631afcd79f60e31b815260040160405180910390fd5b6109fe610d8c565b600060408284031215610def57600080fd5b50919050565b600060208284031215610e0757600080fd5b81356001600160401b03811115610e1d57600080fd5b610e2984828501610ddd565b949350505050565b600060208284031215610e4357600080fd5b5035919050565b60005b83811015610e65578181015183820152602001610e4d565b50506000910152565b60008151808452610e86816020860160208601610e4a565b601f01601f19169290920160200192915050565b602081526000610ead6020830184610e6e565b9392505050565b634e487b7160e01b600052604160045260246000fd5b604051606081016001600160401b0381118282101715610eec57610eec610eb4565b60405290565b604080519081016001600160401b0381118282101715610eec57610eec610eb4565b604051601f8201601f191681016001600160401b0381118282101715610f3c57610f3c610eb4565b604052919050565b600082601f830112610f5557600080fd5b81356001600160401b03811115610f6e57610f6e610eb4565b610f81601f8201601f1916602001610f14565b818152846020838601011115610f9657600080fd5b816020850160208301376000918101602001919091529392505050565b600060208284031215610fc557600080fd5b81356001600160401b03811115610fdb57600080fd5b610e2984828501610f44565b80356001600160a01b0381168114610ffe57600080fd5b919050565b60006020828403121561101557600080fd5b610ead82610fe7565b6000806040838503121561103157600080fd5b82356001600160401b038082111561104857600080fd5b61105486838701610ddd565b9350602085013591508082111561106a57600080fd5b5061107785828601610f44565b9150509250929050565b600060208083016020845280855180835260408601915060408160051b87010192506020870160005b828110156110d857603f198886030184526110c6858351610e6e565b945092850192908501906001016110aa565b5092979650505050505050565b6000806000606084860312156110fa57600080fd5b61110384610fe7565b925060208401356001600160401b0381111561111e57600080fd5b61112a86828701610f44565b925050604084013590509250925092565b6000823560be1983360301811261115157600080fd5b9190910192915050565b60008235601e1983360301811261115157600080fd5b6000808335601e1984360301811261118857600080fd5b8301803591506001600160401b038211156111a257600080fd5b6020019150368190038213156111b757600080fd5b9250929050565b6000602082840312156111d057600080fd5b81356001600160401b03808211156111e757600080fd5b90830190606082860312156111fb57600080fd5b611203610eca565b82358281111561121257600080fd5b61121e87828601610f44565b82525060208301358281111561123357600080fd5b61123f87828601610f44565b60208301525060408301358281111561125757600080fd5b61126387828601610f44565b60408301525095945050505050565b600181811c9082168061128657607f821691505b602082108103610def57634e487b7160e01b600052602260045260246000fd5b600081546112b381611272565b600182811680156112cb57600181146112e05761130f565b60ff198416875282151583028701945061130f565b8560005260208060002060005b858110156113065781548a8201529084019082016112ed565b50505082870194505b5050505092915050565b6000610ead82846112a6565b601f821115611371576000816000526020600020601f850160051c8101602086101561134e5750805b601f850160051c820191505b8181101561136d5782815560010161135a565b5050505b505050565b81516001600160401b0381111561138f5761138f610eb4565b6113a38161139d8454611272565b84611325565b602080601f8311600181146113d857600084156113c05750858301515b600019600386901b1c1916600185901b17855561136d565b600085815260208120601f198616915b82811015611407578886015182559484019460019091019084016113e8565b50858210156114255787850151600019600388901b60f8161c191681555b5050505050600190811b01905550565b6000602080838503121561144857600080fd5b82356001600160401b038082111561145f57600080fd5b908401906040828703121561147357600080fd5b61147b610ef2565b82358281111561148a57600080fd5b61149688828601610f44565b82525083830135828111156114aa57600080fd5b80840193505086601f8401126114bf57600080fd5b8235828111156114d1576114d1610eb4565b8060051b6114e0868201610f14565b918252848101860191868101908a8411156114fa57600080fd5b87870192505b83831015611536578235868111156115185760008081fd5b6115268c8a838b0101610f44565b8352509187019190870190611500565b968401969096525090979650505050505050565b60008251611151818460208701610e4a565b80820180821115610aaf57634e487b7160e01b600052601160045260246000fd5b6000823560be1983360301811261159357600080fd5b90910192915050565b80356001600160401b0381168114610ffe57600080fd5b6000808335601e198436030181126115ca57600080fd5b83016020810192503590506001600160401b038111156115e957600080fd5b8036038213156111b757600080fd5b81835281816020850137506000828201602090810191909152601f909101601f19169091010190565b60008235601e1983360301811261159357600080fd5b600061164382836115b3565b602085526116556020860182846115f8565b95945050505050565b8035825260208101356020830152600061167a6040830161159c565b6001600160401b038082166040860152806116976060860161159c565b16606086015250506080820135605e198336030181126116b657600080fd5b60c0608085015282016116c981806115b3565b606060c08701526116df610120870182846115f8565b9150506116ef60208301836115b3565b60bf19808885030160e08901526117078483856115f8565b935061171660408601866115b3565b95509250808885030161010089015250506117328284836115f8565b9250505061174360a0840184611621565b84820360a08601526116558282611637565b6020815260008235601e1984360301811261176f57600080fd5b83016020810190356001600160401b0381111561178b57600080fd5b8060051b80360383131561179e57600080fd5b60406020860152606085018290526001600160fb1b038211156117c057600080fd5b80836080870137840191506117da9050602085018561157d565b6060848303016040850152611655608083018261165e565b60006020828403121561180457600080fd5b81518015158114610ead57600080fd5b634e487b7160e01b600052603260045260246000fdfea2646970667358221220c4a6c401f779613cbcb2a2e2e0386144aacdfeee5d42acf1bde6deb5029d873964736f6c63430008190033",
  "linkReferences": {},
  "deployedLinkReferences": {}
}