{
  "_format": "hh-sol-artifact-1",
  "contractName": "Helpers",
  "sourceName": "contracts/utils/Helpers.sol",
  "abi": [
    {
      "inputs": [],
      "name": "getFdcHub",
      "outputs": [
        {
          "internalType": "contract IFdcHub",
          "name": "",
          "type": "address"
        }
      ],
      "stateMutability": "view",
      "type": "function"
    },
    {
      "inputs": [],
      "name": "getFdcRequestFeeConfigurations",
      "outputs": [
        {
          "internalType": "contract IFdcRequestFeeConfigurations",
          "name": "",
          "type": "address"
        }
      ],
      "stateMutability": "view",
      "type": "function"
    },
    {
      "inputs": [],
      "name": "getFlareSystemsManager",
      "outputs": [
        {
          "internalType": "contract IFlareSystemsManager",
          "name": "",
          "type": "address"
        }
      ],
      "stateMutability": "view",
      "type": "function"
    },
    {
      "inputs": [],
      "name": "getRelay",
      "outputs": [
        {
          "internalType": "contract IRelay",
          "name": "",
          "type": "address"
        }
      ],
      "stateMutability": "view",
      "type": "function"
    }
  ],
  "bytecode": "0x6080604052348015600f57600080fd5b506102f48061001f6000396000f3fe608060405234801561001057600080fd5b506004361061004c5760003560e01c806336993e1914610051578063a502637b14610075578063b8f4ba1b1461007d578063cefddc6314610085575b600080fd5b61005961008d565b6040516001600160a01b03909116815260200160405180910390f35b61005961009c565b6100596100a6565b6100596100b0565b60006100976100ba565b905090565b600061009761018b565b60006100976101f1565b6000610097610240565b600073ad67fe66660fb8dfe9d6b1b4240d8650e30f60196001600160a01b031663159354a260405160200161011690602080825260139082015272233630b932a9bcb9ba32b6b9a6b0b730b3b2b960691b604082015260600190565b604051602081830303815290604052805190602001206040518263ffffffff1660e01b815260040161014a91815260200190565b602060405180830381865afa158015610167573d6000803e3d6000fd5b505050506040513d601f19601f82011682018060405250810190610097919061028e565b600073ad67fe66660fb8dfe9d6b1b4240d8650e30f60196001600160a01b031663159354a2604051602001610116906020808252601b908201527f46646352657175657374466565436f6e66696775726174696f6e730000000000604082015260600190565b600073ad67fe66660fb8dfe9d6b1b4240d8650e30f60196001600160a01b031663159354a260405160200161011690602080825260069082015265233231a43ab160d11b604082015260600190565b600073ad67fe66660fb8dfe9d6b1b4240d8650e30f60196001600160a01b031663159354a26040516020016101169060208082526005908201526452656c617960d81b604082015260600190565b6000602082840312156102a057600080fd5b81516001600160a01b03811681146102b757600080fd5b939250505056fea2646970667358221220a35d466e6a9d17b4190b657b6533a68a5d9a839f5606b2e9360cbad1a9abc29364736f6c63430008190033",
  "linkReferences": {},
  "deployedLinkReferences": {}
}