{
  "_format": "hh-sol-artifact-1",
  "contractName": "ChessTournamentImpl",
  "sourceName": "contracts/ChessTournamentImpl.sol",
  "abi": [
    {
      "inputs": [],
      "name": "InvalidInitialization",
      "type": "error"
    },
    {
      "inputs": [],
      "name": "NotInitializing",
      "type": "error"
    },
    {
      "inputs": [
        {
          "internalType": "address",
          "name": "owner",
          "type": "address"
        }
      ],
      "name": "OwnableInvalidOwner",
      "type": "error"
    },
    {
      "inputs": [
        {
          "internalType": "address",
          "name": "account",
          "type": "address"
        }
      ],
      "name": "OwnableUnauthorizedAccount",
      "type": "error"
    },
    {
      "anonymous": false,
      "inputs": [
        {
          "indexed": false,
          "internalType": "uint64",
          "name": "version",
          "type": "uint64"
        }
      ],
      "name": "Initialized",
      "type": "event"
    },
    {
      "anonymous": false,
      "inputs": [
        {
          "indexed": true,
          "internalType": "address",
          "name": "previousOwner",
          "type": "address"
        },
        {
          "indexed": true,
          "internalType": "address",
          "name": "newOwner",
          "type": "address"
        }
      ],
      "name": "OwnershipTransferred",
      "type": "event"
    },
    {
      "inputs": [
        {
          "components": [
            {
              "internalType": "bytes32[]",
              "name": "merkleProof",
              "type": "bytes32[]"
            },
            {
              "components": [
                {
                  "internalType": "bytes32",
                  "name": "attestationType",
                  "type": "bytes32"
                },
                {
                  "internalType": "bytes32",
                  "name": "sourceId",
                  "type": "bytes32"
                },
                {
                  "internalType": "uint64",
                  "name": "votingRound",
                  "type": "uint64"
                },
                {
                  "internalType": "uint64",
                  "name": "lowestUsedTimestamp",
                  "type": "uint64"
                },
                {
                  "components": [
                    {
                      "internalType": "string",
                      "name": "url",
                      "type": "string"
                    },
                    {
                      "internalType": "string",
                      "name": "postprocessJq",
                      "type": "string"
                    },
                    {
                      "internalType": "string",
                      "name": "abi_signature",
                      "type": "string"
                    }
                  ],
                  "internalType": "struct IJsonApi.RequestBody",
                  "name": "requestBody",
                  "type": "tuple"
                },
                {
                  "components": [
                    {
                      "internalType": "bytes",
                      "name": "abi_encoded_data",
                      "type": "bytes"
                    }
                  ],
                  "internalType": "struct IJsonApi.ResponseBody",
                  "name": "responseBody",
                  "type": "tuple"
                }
              ],
              "internalType": "struct IJsonApi.Response",
              "name": "data",
              "type": "tuple"
            }
          ],
          "internalType": "struct IJsonApi.Proof",
          "name": "data",
          "type": "tuple"
        },
        {
          "internalType": "string",
          "name": "_playerName",
          "type": "string"
        }
      ],
      "name": "addPlayer",
      "outputs": [],
      "stateMutability": "payable",
      "type": "function"
    },
    {
      "inputs": [],
      "name": "fee",
      "outputs": [
        {
          "internalType": "uint256",
          "name": "",
          "type": "uint256"
        }
      ],
      "stateMutability": "view",
      "type": "function"
    },
    {
      "inputs": [
        {
          "components": [
            {
              "internalType": "bytes32[]",
              "name": "merkleProof",
              "type": "bytes32[]"
            },
            {
              "components": [
                {
                  "internalType": "bytes32",
                  "name": "attestationType",
                  "type": "bytes32"
                },
                {
                  "internalType": "bytes32",
                  "name": "sourceId",
                  "type": "bytes32"
                },
                {
                  "internalType": "uint64",
                  "name": "votingRound",
                  "type": "uint64"
                },
                {
                  "internalType": "uint64",
                  "name": "lowestUsedTimestamp",
                  "type": "uint64"
                },
                {
                  "components": [
                    {
                      "internalType": "string",
                      "name": "url",
                      "type": "string"
                    },
                    {
                      "internalType": "string",
                      "name": "postprocessJq",
                      "type": "string"
                    },
                    {
                      "internalType": "string",
                      "name": "abi_signature",
                      "type": "string"
                    }
                  ],
                  "internalType": "struct IJsonApi.RequestBody",
                  "name": "requestBody",
                  "type": "tuple"
                },
                {
                  "components": [
                    {
                      "internalType": "bytes",
                      "name": "abi_encoded_data",
                      "type": "bytes"
                    }
                  ],
                  "internalType": "struct IJsonApi.ResponseBody",
                  "name": "responseBody",
                  "type": "tuple"
                }
              ],
              "internalType": "struct IJsonApi.Response",
              "name": "data",
              "type": "tuple"
            }
          ],
          "internalType": "struct IJsonApi.Proof",
          "name": "data",
          "type": "tuple"
        }
      ],
      "name": "finishTournament",
      "outputs": [],
      "stateMutability": "nonpayable",
      "type": "function"
    },
    {
      "inputs": [],
      "name": "getPlayers",
      "outputs": [
        {
          "internalType": "string[]",
          "name": "",
          "type": "string[]"
        }
      ],
      "stateMutability": "view",
      "type": "function"
    },
    {
      "inputs": [
        {
          "internalType": "address",
          "name": "_organizer",
          "type": "address"
        },
        {
          "internalType": "string",
          "name": "_url",
          "type": "string"
        },
        {
          "internalType": "uint256",
          "name": "_fee",
          "type": "uint256"
        }
      ],
      "name": "initialize",
      "outputs": [],
      "stateMutability": "nonpayable",
      "type": "function"
    },
    {
      "inputs": [],
      "name": "owner",
      "outputs": [
        {
          "internalType": "address",
          "name": "",
          "type": "address"
        }
      ],
      "stateMutability": "view",
      "type": "function"
    },
    {
      "inputs": [
        {
          "internalType": "address",
          "name": "",
          "type": "address"
        }
      ],
      "name": "playerAddressToPlayerName",
      "outputs": [
        {
          "internalType": "string",
          "name": "",
          "type": "string"
        }
      ],
      "stateMutability": "view",
      "type": "function"
    },
    {
      "inputs": [
        {
          "internalType": "string",
          "name": "",
          "type": "string"
        }
      ],
      "name": "playerNameToPlayerAddress",
      "outputs": [
        {
          "internalType": "address",
          "name": "",
          "type": "address"
        }
      ],
      "stateMutability": "view",
      "type": "function"
    },
    {
      "inputs": [
        {
          "internalType": "uint256",
          "name": "",
          "type": "uint256"
        }
      ],
      "name": "playerNames",
      "outputs": [
        {
          "internalType": "string",
          "name": "",
          "type": "string"
        }
      ],
      "stateMutability": "view",
      "type": "function"
    },
    {
      "inputs": [],
      "name": "prize",
      "outputs": [
        {
          "internalType": "uint256",
          "name": "",
          "type": "uint256"
        }
      ],
      "stateMutability": "view",
      "type": "function"
    },
    {
      "inputs": [],
      "name": "renounceOwnership",
      "outputs": [],
      "stateMutability": "nonpayable",
      "type": "function"
    },
    {
      "inputs": [
        {
          "internalType": "address",
          "name": "newOwner",
          "type": "address"
        }
      ],
      "name": "transferOwnership",
      "outputs": [],
      "stateMutability": "nonpayable",
      "type": "function"
    },
    {
      "inputs": [],
      "name": "url",
      "outputs": [
        {
          "internalType": "string",
          "name": "",
          "type": "string"
        }
      ],
      "stateMutability": "view",
      "type": "function"
    },
    {
      "inputs": [],
      "name": "winner",
      "outputs": [
        {
          "internalType": "string",
          "name": "",
          "type": "string"
        }
      ],
      "stateMutability": "view",
      "type": "function"
    }
  ],
  "bytecode": "0x6080604052348015600f57600080fd5b5061181b8061001f6000396000f3fe6080604052600436106100dd5760003560e01c80638b5b9ccc1161007f578063ddca3f4311610059578063ddca3f431461026f578063dfbf53ae14610293578063e3ac5d26146102a8578063f2fde38b146102be57600080fd5b80638b5b9ccc146101f05780638da5cb5b146102125780638dac9bbc1461024f57600080fd5b80635600f04f116100bb5780635600f04f146101935780635fecc103146101a8578063715018a6146101c85780637b341152146101dd57600080fd5b806321b6829f146100e257806331ad576d146101045780633e2b61a21461013a575b600080fd5b3480156100ee57600080fd5b506101026100fd366004610db0565b6102de565b005b34801561011057600080fd5b5061012461011f366004610dec565b610480565b6040516101319190610e55565b60405180910390f35b34801561014657600080fd5b5061017b610155366004610f6e565b80516020818301810180516004825292820191909301209152546001600160a01b031681565b6040516001600160a01b039091168152602001610131565b34801561019f57600080fd5b5061012461052c565b3480156101b457600080fd5b506101246101c3366004610fbe565b610539565b3480156101d457600080fd5b50610102610552565b6101026101eb366004610fd9565b610566565b3480156101fc57600080fd5b506102056107b9565b604051610131919061103c565b34801561021e57600080fd5b507f9016d09d72d40fdae2fd8ceac6b6234c7706214fd39c1cd1e609a0528c199300546001600160a01b031661017b565b34801561025b57600080fd5b5061010261026a3660046110a0565b610892565b34801561027b57600080fd5b5061028560015481565b604051908152602001610131565b34801561029f57600080fd5b506101246109b4565b3480156102b457600080fd5b5061028560025481565b3480156102ca57600080fd5b506101026102d9366004610fbe565b6109c1565b6102e7816109ff565b6103285760405162461bcd60e51b815260206004820152600d60248201526c141c9bdbd9881a5b9d985b1a59609a1b60448201526064015b60405180910390fd5b600061033760208301836110f6565b6103459060a0810190611116565b61034f908061112c565b81019061035c9190611179565b9050806000015180519060200120600060405161037991906112d4565b6040518091039020146103ca5760405162461bcd60e51b81526020600482015260196024820152780a8deeae4dcc2dacadce840aaa49840daeae6e840dac2e8c6d603b1b604482015260640161031f565b604080518082019091526008815267199a5b9a5cda195960c21b6020918201528181015180519101207f7b33a07f1644fab5bc0af6f7c06c8dceb370139ee7f9ae35b70dfee8eda3c95a146104615760405162461bcd60e51b815260206004820152601d60248201527f546f75726e616d656e74206d75737420686176652066696e6973686564000000604482015260640161031f565b60408101516003906104739082611331565b5061047c610a80565b5050565b6006818154811061049057600080fd5b9060005260206000200160009150905080546104ab9061122d565b80601f01602080910402602001604051908101604052809291908181526020018280546104d79061122d565b80156105245780601f106104f957610100808354040283529160200191610524565b820191906000526020600020905b81548152906001019060200180831161050757829003601f168201915b505050505081565b600080546104ab9061122d565b600560205260009081526040902080546104ab9061122d565b61055a610c10565b6105646000610c6b565b565b61056f826109ff565b6105ab5760405162461bcd60e51b815260206004820152600d60248201526c141c9bdbd9881a5b9d985b1a59609a1b604482015260640161031f565b60006105ba60208401846110f6565b6105c89060a0810190611116565b6105d2908061112c565b8101906105df91906113f0565b905080600001518051906020012060006040516105fc91906112d4565b60405180910390201461064d5760405162461bcd60e51b81526020600482015260196024820152780a8deeae4dcc2dacadce840aaa49840daeae6e840dac2e8c6d603b1b604482015260640161031f565b61065b816020015183610cdc565b6106b75760405162461bcd60e51b815260206004820152602760248201527f557365726e616d65206e6f7420696e20746f75726e616d656e7420706c6179656044820152661c9cc81b1a5cdd60ca1b606482015260840161031f565b60015434146107085760405162461bcd60e51b815260206004820152601f60248201527f596f75206e65656420746f2070617920746865206a6f696e696e672066656500604482015260640161031f565b336004836040516107199190611505565b908152604080516020928190038301902080546001600160a01b0319166001600160a01b03949094169390931790925533600090815260059091522061075f8382611331565b50600680546001810182556000919091527ff652222313e28459528d920b65115c16c04f3efc82aaedc97be59f3f377c0d3f0161079c8382611331565b5034600260008282546107af9190611517565b9091555050505050565b60606006805480602002602001604051908101604052809291908181526020016000905b828210156108895783829060005260206000200180546107fc9061122d565b80601f01602080910402602001604051908101604052809291908181526020018280546108289061122d565b80156108755780601f1061084a57610100808354040283529160200191610875565b820191906000526020600020905b81548152906001019060200180831161085857829003601f168201915b5050505050815260200190600101906107dd565b50505050905090565b7ff0c57e16840df040f15088dc2f81fe391c3923bec73e23a9662efc9c229c6a008054600160401b810460ff1615906001600160401b03166000811580156108d75750825b90506000826001600160401b031660011480156108f35750303b155b905081158015610901575080155b1561091f5760405163f92ee8a960e01b815260040160405180910390fd5b845467ffffffffffffffff19166001178555831561094957845460ff60401b1916600160401b1785555b60006109558882611331565b50600186905561096488610d36565b83156109aa57845460ff60401b19168555604051600181527fc7f505b2f371ae2175ee4913f4499e1f2633a7b5936321eed1cdaeb6115181d29060200160405180910390a15b5050505050505050565b600380546104ab9061122d565b6109c9610c10565b6001600160a01b0381166109f357604051631e4fbdf760e01b81526000600482015260240161031f565b6109fc81610c6b565b50565b60405163d0f18f8560e01b81526000907307ad8508c9173dc845817472ca0484035abfa3c89063d0f18f8590610a39908590600401611710565b602060405180830381865afa158015610a56573d6000803e3d6000fd5b505050506040513d601f19601f82011682018060405250810190610a7a91906117ad565b92915050565b60006001600160a01b031660046003604051610a9c91906112d4565b908152604051908190036020019020546001600160a01b031603610b025760405162461bcd60e51b815260206004820152601a60248201527f706c617965722073686f756c6420686176652061646472657373000000000000604482015260640161031f565b600254471015610b545760405162461bcd60e51b815260206004820152601e60248201527f4e6f7420656e6f7567682062616c616e636520696e20636f6e74726163740000604482015260640161031f565b600060046003604051610b6791906112d4565b908152604051908190036020018120546002546001600160a01b039091169160006040518083038185875af1925050503d8060008114610bc3576040519150601f19603f3d011682016040523d82523d6000602084013e610bc8565b606091505b50509050806109fc5760405162461bcd60e51b81526020600482015260146024820152734661696c656420746f2073656e64207072697a6560601b604482015260640161031f565b33610c427f9016d09d72d40fdae2fd8ceac6b6234c7706214fd39c1cd1e609a0528c199300546001600160a01b031690565b6001600160a01b0316146105645760405163118cdaa760e01b815233600482015260240161031f565b7f9016d09d72d40fdae2fd8ceac6b6234c7706214fd39c1cd1e609a0528c19930080546001600160a01b031981166001600160a01b03848116918217845560405192169182907f8be0079c531659141344cd1fd0a4f28419497f9722a3daafe3b4186f6b6457e090600090a3505050565b80516020820120600090815b8451811015610d2b5781858281518110610d0457610d046117cf565b60200260200101518051906020012003610d2357600192505050610a7a565b600101610ce8565b506000949350505050565b610d3e610d47565b6109fc81610d90565b7ff0c57e16840df040f15088dc2f81fe391c3923bec73e23a9662efc9c229c6a0054600160401b900460ff1661056457604051631afcd79f60e31b815260040160405180910390fd5b6109c9610d47565b600060408284031215610daa57600080fd5b50919050565b600060208284031215610dc257600080fd5b81356001600160401b03811115610dd857600080fd5b610de484828501610d98565b949350505050565b600060208284031215610dfe57600080fd5b5035919050565b60005b83811015610e20578181015183820152602001610e08565b50506000910152565b60008151808452610e41816020860160208601610e05565b601f01601f19169290920160200192915050565b602081526000610e686020830184610e29565b9392505050565b634e487b7160e01b600052604160045260246000fd5b604051606081016001600160401b0381118282101715610ea757610ea7610e6f565b60405290565b604080519081016001600160401b0381118282101715610ea757610ea7610e6f565b604051601f8201601f191681016001600160401b0381118282101715610ef757610ef7610e6f565b604052919050565b600082601f830112610f1057600080fd5b81356001600160401b03811115610f2957610f29610e6f565b610f3c601f8201601f1916602001610ecf565b818152846020838601011115610f5157600080fd5b816020850160208301376000918101602001919091529392505050565b600060208284031215610f8057600080fd5b81356001600160401b03811115610f9657600080fd5b610de484828501610eff565b80356001600160a01b0381168114610fb957600080fd5b919050565b600060208284031215610fd057600080fd5b610e6882610fa2565b60008060408385031215610fec57600080fd5b82356001600160401b038082111561100357600080fd5b61100f86838701610d98565b9350602085013591508082111561102557600080fd5b5061103285828601610eff565b9150509250929050565b600060208083016020845280855180835260408601915060408160051b87010192506020870160005b8281101561109357603f19888603018452611081858351610e29565b94509285019290850190600101611065565b5092979650505050505050565b6000806000606084860312156110b557600080fd5b6110be84610fa2565b925060208401356001600160401b038111156110d957600080fd5b6110e586828701610eff565b925050604084013590509250925092565b6000823560be1983360301811261110c57600080fd5b9190910192915050565b60008235601e1983360301811261110c57600080fd5b6000808335601e1984360301811261114357600080fd5b8301803591506001600160401b0382111561115d57600080fd5b60200191503681900382131561117257600080fd5b9250929050565b60006020828403121561118b57600080fd5b81356001600160401b03808211156111a257600080fd5b90830190606082860312156111b657600080fd5b6111be610e85565b8235828111156111cd57600080fd5b6111d987828601610eff565b8252506020830135828111156111ee57600080fd5b6111fa87828601610eff565b60208301525060408301358281111561121257600080fd5b61121e87828601610eff565b60408301525095945050505050565b600181811c9082168061124157607f821691505b602082108103610daa57634e487b7160e01b600052602260045260246000fd5b6000815461126e8161122d565b60018281168015611286576001811461129b576112ca565b60ff19841687528215158302870194506112ca565b8560005260208060002060005b858110156112c15781548a8201529084019082016112a8565b50505082870194505b5050505092915050565b6000610e688284611261565b601f82111561132c576000816000526020600020601f850160051c810160208610156113095750805b601f850160051c820191505b8181101561132857828155600101611315565b5050505b505050565b81516001600160401b0381111561134a5761134a610e6f565b61135e81611358845461122d565b846112e0565b602080601f831160018114611393576000841561137b5750858301515b600019600386901b1c1916600185901b178555611328565b600085815260208120601f198616915b828110156113c2578886015182559484019460019091019084016113a3565b50858210156113e05787850151600019600388901b60f8161c191681555b5050505050600190811b01905550565b6000602080838503121561140357600080fd5b82356001600160401b038082111561141a57600080fd5b908401906040828703121561142e57600080fd5b611436610ead565b82358281111561144557600080fd5b61145188828601610eff565b825250838301358281111561146557600080fd5b80840193505086601f84011261147a57600080fd5b82358281111561148c5761148c610e6f565b8060051b61149b868201610ecf565b918252848101860191868101908a8411156114b557600080fd5b87870192505b838310156114f1578235868111156114d35760008081fd5b6114e18c8a838b0101610eff565b83525091870191908701906114bb565b968401969096525090979650505050505050565b6000825161110c818460208701610e05565b80820180821115610a7a57634e487b7160e01b600052601160045260246000fd5b6000823560be1983360301811261154e57600080fd5b90910192915050565b80356001600160401b0381168114610fb957600080fd5b6000808335601e1984360301811261158557600080fd5b83016020810192503590506001600160401b038111156115a457600080fd5b80360382131561117257600080fd5b81835281816020850137506000828201602090810191909152601f909101601f19169091010190565b60008235601e1983360301811261154e57600080fd5b60006115fe828361156e565b602085526116106020860182846115b3565b95945050505050565b8035825260208101356020830152600061163560408301611557565b6001600160401b0380821660408601528061165260608601611557565b16606086015250506080820135605e1983360301811261167157600080fd5b60c060808501528201611684818061156e565b606060c087015261169a610120870182846115b3565b9150506116aa602083018361156e565b60bf19808885030160e08901526116c28483856115b3565b93506116d1604086018661156e565b95509250808885030161010089015250506116ed8284836115b3565b925050506116fe60a08401846115dc565b84820360a086015261161082826115f2565b6020815260008235601e1984360301811261172a57600080fd5b83016020810190356001600160401b0381111561174657600080fd5b8060051b80360383131561175957600080fd5b60406020860152606085018290526001600160fb1b0382111561177b57600080fd5b808360808701378401915061179590506020850185611538565b60608483030160408501526116106080830182611619565b6000602082840312156117bf57600080fd5b81518015158114610e6857600080fd5b634e487b7160e01b600052603260045260246000fdfea26469706673582212204c8ef5fa2926ab79578ee1b505ab1c287e0b29062aff9265206535db64a7a59664736f6c63430008190033",
  "linkReferences": {},
  "deployedLinkReferences": {}
}