{
  "_format": "hh-sol-artifact-1",
  "contractName": "ChessTournamentImpl",
  "sourceName": "contracts/ChessTournamentImpl.sol",
  "abi": [
    {
      "inputs": [],
      "name": "InvalidInitialization",
      "type": "error"
    },
    {
      "inputs": [],
      "name": "NotInitializing",
      "type": "error"
    },
    {
      "inputs": [
        {
          "internalType": "address",
          "name": "owner",
          "type": "address"
        }
      ],
      "name": "OwnableInvalidOwner",
      "type": "error"
    },
    {
      "inputs": [
        {
          "internalType": "address",
          "name": "account",
          "type": "address"
        }
      ],
      "name": "OwnableUnauthorizedAccount",
      "type": "error"
    },
    {
      "anonymous": false,
      "inputs": [
        {
          "indexed": false,
          "internalType": "uint64",
          "name": "version",
          "type": "uint64"
        }
      ],
      "name": "Initialized",
      "type": "event"
    },
    {
      "anonymous": false,
      "inputs": [
        {
          "indexed": true,
          "internalType": "address",
          "name": "previousOwner",
          "type": "address"
        },
        {
          "indexed": true,
          "internalType": "address",
          "name": "newOwner",
          "type": "address"
        }
      ],
      "name": "OwnershipTransferred",
      "type": "event"
    },
    {
      "inputs": [
        {
          "internalType": "string",
          "name": "_playerName",
          "type": "string"
        }
      ],
      "name": "addPlayer",
      "outputs": [],
      "stateMutability": "payable",
      "type": "function"
    },
    {
      "inputs": [],
      "name": "fee",
      "outputs": [
        {
          "internalType": "uint256",
          "name": "",
          "type": "uint256"
        }
      ],
      "stateMutability": "view",
      "type": "function"
    },
    {
      "inputs": [
        {
          "components": [
            {
              "internalType": "bytes32[]",
              "name": "merkleProof",
              "type": "bytes32[]"
            },
            {
              "components": [
                {
                  "internalType": "bytes32",
                  "name": "attestationType",
                  "type": "bytes32"
                },
                {
                  "internalType": "bytes32",
                  "name": "sourceId",
                  "type": "bytes32"
                },
                {
                  "internalType": "uint64",
                  "name": "votingRound",
                  "type": "uint64"
                },
                {
                  "internalType": "uint64",
                  "name": "lowestUsedTimestamp",
                  "type": "uint64"
                },
                {
                  "components": [
                    {
                      "internalType": "string",
                      "name": "url",
                      "type": "string"
                    },
                    {
                      "internalType": "string",
                      "name": "postprocessJq",
                      "type": "string"
                    },
                    {
                      "internalType": "string",
                      "name": "abi_signature",
                      "type": "string"
                    }
                  ],
                  "internalType": "struct IJsonApi.RequestBody",
                  "name": "requestBody",
                  "type": "tuple"
                },
                {
                  "components": [
                    {
                      "internalType": "bytes",
                      "name": "abi_encoded_data",
                      "type": "bytes"
                    }
                  ],
                  "internalType": "struct IJsonApi.ResponseBody",
                  "name": "responseBody",
                  "type": "tuple"
                }
              ],
              "internalType": "struct IJsonApi.Response",
              "name": "data",
              "type": "tuple"
            }
          ],
          "internalType": "struct IJsonApi.Proof",
          "name": "data",
          "type": "tuple"
        }
      ],
      "name": "finishTournament",
      "outputs": [],
      "stateMutability": "nonpayable",
      "type": "function"
    },
    {
      "inputs": [],
      "name": "hasFinished",
      "outputs": [
        {
          "internalType": "bool",
          "name": "",
          "type": "bool"
        }
      ],
      "stateMutability": "view",
      "type": "function"
    },
    {
      "inputs": [],
      "name": "hasStarted",
      "outputs": [
        {
          "internalType": "bool",
          "name": "",
          "type": "bool"
        }
      ],
      "stateMutability": "view",
      "type": "function"
    },
    {
      "inputs": [
        {
          "internalType": "string",
          "name": "_url",
          "type": "string"
        },
        {
          "internalType": "uint8",
          "name": "_maxPlayers",
          "type": "uint8"
        },
        {
          "internalType": "uint256",
          "name": "_fee",
          "type": "uint256"
        }
      ],
      "name": "initialize",
      "outputs": [],
      "stateMutability": "nonpayable",
      "type": "function"
    },
    {
      "inputs": [],
      "name": "maxPlayers",
      "outputs": [
        {
          "internalType": "uint8",
          "name": "",
          "type": "uint8"
        }
      ],
      "stateMutability": "view",
      "type": "function"
    },
    {
      "inputs": [],
      "name": "owner",
      "outputs": [
        {
          "internalType": "address",
          "name": "",
          "type": "address"
        }
      ],
      "stateMutability": "view",
      "type": "function"
    },
    {
      "inputs": [
        {
          "internalType": "address",
          "name": "",
          "type": "address"
        }
      ],
      "name": "playerAddressToPlayerName",
      "outputs": [
        {
          "internalType": "string",
          "name": "",
          "type": "string"
        }
      ],
      "stateMutability": "view",
      "type": "function"
    },
    {
      "inputs": [
        {
          "internalType": "string",
          "name": "",
          "type": "string"
        }
      ],
      "name": "playerNameToPlayerAddress",
      "outputs": [
        {
          "internalType": "address",
          "name": "",
          "type": "address"
        }
      ],
      "stateMutability": "view",
      "type": "function"
    },
    {
      "inputs": [
        {
          "internalType": "uint256",
          "name": "",
          "type": "uint256"
        }
      ],
      "name": "playerNames",
      "outputs": [
        {
          "internalType": "string",
          "name": "",
          "type": "string"
        }
      ],
      "stateMutability": "view",
      "type": "function"
    },
    {
      "inputs": [],
      "name": "prize",
      "outputs": [
        {
          "internalType": "uint256",
          "name": "",
          "type": "uint256"
        }
      ],
      "stateMutability": "view",
      "type": "function"
    },
    {
      "inputs": [],
      "name": "renounceOwnership",
      "outputs": [],
      "stateMutability": "nonpayable",
      "type": "function"
    },
    {
      "inputs": [],
      "name": "startTournament",
      "outputs": [],
      "stateMutability": "nonpayable",
      "type": "function"
    },
    {
      "inputs": [
        {
          "internalType": "address",
          "name": "newOwner",
          "type": "address"
        }
      ],
      "name": "transferOwnership",
      "outputs": [],
      "stateMutability": "nonpayable",
      "type": "function"
    },
    {
      "inputs": [],
      "name": "url",
      "outputs": [
        {
          "internalType": "string",
          "name": "",
          "type": "string"
        }
      ],
      "stateMutability": "view",
      "type": "function"
    },
    {
      "inputs": [],
      "name": "winner",
      "outputs": [
        {
          "internalType": "string",
          "name": "",
          "type": "string"
        }
      ],
      "stateMutability": "view",
      "type": "function"
    },
    {
      "stateMutability": "payable",
      "type": "receive"
    }
  ],
  "bytecode": "0x6080604052348015600f57600080fd5b5061157c8061001f6000396000f3fe6080604052600436106101025760003560e01c80638d48169511610095578063dfbf53ae11610064578063dfbf53ae146102fa578063e3ac5d261461030f578063f2fde38b14610325578063f77e8b8314610345578063fe5815a61461035857600080fd5b80638d481695146102645780638da5cb5b14610284578063bf559d11146102c1578063ddca3f43146102d657600080fd5b80634c2412a2116100d15780634c2412a2146101ee5780635600f04f1461021a5780635fecc1031461022f578063715018a61461024f57600080fd5b806321b6829f1461010e57806331ad576d146101305780633e2b61a21461016657806344691f7e146101bf57600080fd5b3661010957005b600080fd5b34801561011a57600080fd5b5061012e610129366004610d38565b610378565b005b34801561013c57600080fd5b5061015061014b366004610d79565b61052f565b60405161015d9190610db6565b60405180910390f35b34801561017257600080fd5b506101a7610181366004610eb3565b80516020818301810180516005825292820191909301209152546001600160a01b031681565b6040516001600160a01b03909116815260200161015d565b3480156101cb57600080fd5b506003546101de90610100900460ff1681565b604051901515815260200161015d565b3480156101fa57600080fd5b506003546102089060ff1681565b60405160ff909116815260200161015d565b34801561022657600080fd5b506101506105db565b34801561023b57600080fd5b5061015061024a366004610eef565b6105e8565b34801561025b57600080fd5b5061012e610601565b34801561027057600080fd5b5061012e61027f366004610f18565b610615565b34801561029057600080fd5b507f9016d09d72d40fdae2fd8ceac6b6234c7706214fd39c1cd1e609a0528c199300546001600160a01b03166101a7565b3480156102cd57600080fd5b5061012e610746565b3480156102e257600080fd5b506102ec60015481565b60405190815260200161015d565b34801561030657600080fd5b506101506107b7565b34801561031b57600080fd5b506102ec60025481565b34801561033157600080fd5b5061012e610340366004610eef565b6107c4565b61012e610353366004610eb3565b610802565b34801561036457600080fd5b506003546101de9062010000900460ff1681565b610381816109a7565b6103c25760405162461bcd60e51b815260206004820152600d60248201526c1c1c9bdbd9881a5b9d985b1a59609a1b60448201526064015b60405180910390fd5b60006103d16020830183610f77565b6103df9060a0810190610f97565b6103e99080610fad565b8101906103f69190610ffa565b90508060000151805190602001206000604051610413919061115b565b6040518091039020146104685760405162461bcd60e51b815260206004820152601960248201527f746f75726e616d656e742075726c206d757374206d617463680000000000000060448201526064016103b9565b604080518082019091526008815267199a5b9a5cda195960c21b6020918201528181015180519101207f7b33a07f1644fab5bc0af6f7c06c8dceb370139ee7f9ae35b70dfee8eda3c95a146104ff5760405162461bcd60e51b815260206004820152601d60248201527f746f75726e616d656e74206d75737420686176652066696e697368656400000060448201526064016103b9565b604081015160049061051190826111b8565b506003805462ff000019166201000017905561052b610a28565b5050565b6007818154811061053f57600080fd5b90600052602060002001600091509050805461055a906110ae565b80601f0160208091040260200160405190810160405280929190818152602001828054610586906110ae565b80156105d35780601f106105a8576101008083540402835291602001916105d3565b820191906000526020600020905b8154815290600101906020018083116105b657829003601f168201915b505050505081565b6000805461055a906110ae565b6006602052600090815260409020805461055a906110ae565b610609610c0a565b6106136000610c65565b565b7ff0c57e16840df040f15088dc2f81fe391c3923bec73e23a9662efc9c229c6a008054600160401b810460ff1615906001600160401b031660008115801561065a5750825b90506000826001600160401b031660011480156106765750303b155b905081158015610684575080155b156106a25760405163f92ee8a960e01b815260040160405180910390fd5b845467ffffffffffffffff1916600117855583156106cc57845460ff60401b1916600160401b1785555b60006106d889826111b8565b506003805460ff191660ff891617905560018690556106f633610cd6565b831561073c57845460ff60401b19168555604051600181527fc7f505b2f371ae2175ee4913f4499e1f2633a7b5936321eed1cdaeb6115181d29060200160405180910390a15b5050505050505050565b61074e610c0a565b60035460075460ff909116146107a65760405162461bcd60e51b815260206004820152601a60248201527f746f75726e616d656e74206973206e6f742066756c6c2079657400000000000060448201526064016103b9565b6003805461ff001916610100179055565b6004805461055a906110ae565b6107cc610c0a565b6001600160a01b0381166107f657604051631e4fbdf760e01b8152600060048201526024016103b9565b6107ff81610c65565b50565b600354610100900460ff161561085a5760405162461bcd60e51b815260206004820152601e60248201527f546f75726e616d656e742068617320616c72656164792073746172746564000060448201526064016103b9565b60015434146108ab5760405162461bcd60e51b815260206004820152601b60248201527f6e65656420746f2070617920746865206a6f696e696e6720666565000000000060448201526064016103b9565b60035460075460ff909116116108f85760405162461bcd60e51b81526020600482015260126024820152711d1bdd5c9b985b595b9d081a5cc8199d5b1b60721b60448201526064016103b9565b336005826040516109099190611277565b908152604080516020928190038301902080546001600160a01b0319166001600160a01b03949094169390931790925533600090815260069091522061094f82826111b8565b50600780546001810182556000919091527fa66cc928b5edb82af9bd49922954155ab7b0942694bea4ce44661d9a8736c6880161098c82826111b8565b50346002600082825461099f9190611289565b909155505050565b60405163d0f18f8560e01b81526000907307ad8508c9173dc845817472ca0484035abfa3c89063d0f18f85906109e1908590600401611487565b602060405180830381865afa1580156109fe573d6000803e3d6000fd5b505050506040513d601f19601f82011682018060405250810190610a229190611524565b92915050565b60006001600160a01b031660056004604051610a44919061115b565b908152604051908190036020019020546001600160a01b031603610aaa5760405162461bcd60e51b815260206004820152601a60248201527f706c617965722073686f756c642068617665206164647265737300000000000060448201526064016103b9565b600060025411610afc5760405162461bcd60e51b815260206004820152601c60248201527f5072697a65206d7573742062652067726561746572207468616e20300000000060448201526064016103b9565b600254471015610b4e5760405162461bcd60e51b815260206004820152601e60248201527f4e6f7420656e6f7567682062616c616e636520696e20636f6e7472616374000060448201526064016103b9565b600060056004604051610b61919061115b565b908152604051908190036020018120546002546001600160a01b039091169160006040518083038185875af1925050503d8060008114610bbd576040519150601f19603f3d011682016040523d82523d6000602084013e610bc2565b606091505b50509050806107ff5760405162461bcd60e51b81526020600482015260146024820152734661696c656420746f2073656e64207072697a6560601b60448201526064016103b9565b33610c3c7f9016d09d72d40fdae2fd8ceac6b6234c7706214fd39c1cd1e609a0528c199300546001600160a01b031690565b6001600160a01b0316146106135760405163118cdaa760e01b81523360048201526024016103b9565b7f9016d09d72d40fdae2fd8ceac6b6234c7706214fd39c1cd1e609a0528c19930080546001600160a01b031981166001600160a01b03848116918217845560405192169182907f8be0079c531659141344cd1fd0a4f28419497f9722a3daafe3b4186f6b6457e090600090a3505050565b610cde610ce7565b6107ff81610d30565b7ff0c57e16840df040f15088dc2f81fe391c3923bec73e23a9662efc9c229c6a0054600160401b900460ff1661061357604051631afcd79f60e31b815260040160405180910390fd5b6107cc610ce7565b600060208284031215610d4a57600080fd5b81356001600160401b03811115610d6057600080fd5b820160408185031215610d7257600080fd5b9392505050565b600060208284031215610d8b57600080fd5b5035919050565b60005b83811015610dad578181015183820152602001610d95565b50506000910152565b6020815260008251806020840152610dd5816040850160208701610d92565b601f01601f19169190910160400192915050565b634e487b7160e01b600052604160045260246000fd5b604051606081016001600160401b0381118282101715610e2157610e21610de9565b60405290565b600082601f830112610e3857600080fd5b81356001600160401b0380821115610e5257610e52610de9565b604051601f8301601f19908116603f01168101908282118183101715610e7a57610e7a610de9565b81604052838152866020858801011115610e9357600080fd5b836020870160208301376000602085830101528094505050505092915050565b600060208284031215610ec557600080fd5b81356001600160401b03811115610edb57600080fd5b610ee784828501610e27565b949350505050565b600060208284031215610f0157600080fd5b81356001600160a01b0381168114610d7257600080fd5b600080600060608486031215610f2d57600080fd5b83356001600160401b03811115610f4357600080fd5b610f4f86828701610e27565b935050602084013560ff81168114610f6657600080fd5b929592945050506040919091013590565b6000823560be19833603018112610f8d57600080fd5b9190910192915050565b60008235601e19833603018112610f8d57600080fd5b6000808335601e19843603018112610fc457600080fd5b8301803591506001600160401b03821115610fde57600080fd5b602001915036819003821315610ff357600080fd5b9250929050565b60006020828403121561100c57600080fd5b81356001600160401b038082111561102357600080fd5b908301906060828603121561103757600080fd5b61103f610dff565b82358281111561104e57600080fd5b61105a87828601610e27565b82525060208301358281111561106f57600080fd5b61107b87828601610e27565b60208301525060408301358281111561109357600080fd5b61109f87828601610e27565b60408301525095945050505050565b600181811c908216806110c257607f821691505b6020821081036110e257634e487b7160e01b600052602260045260246000fd5b50919050565b600081546110f5816110ae565b6001828116801561110d576001811461112257611151565b60ff1984168752821515830287019450611151565b8560005260208060002060005b858110156111485781548a82015290840190820161112f565b50505082870194505b5050505092915050565b6000610d7282846110e8565b601f8211156111b3576000816000526020600020601f850160051c810160208610156111905750805b601f850160051c820191505b818110156111af5782815560010161119c565b5050505b505050565b81516001600160401b038111156111d1576111d1610de9565b6111e5816111df84546110ae565b84611167565b602080601f83116001811461121a57600084156112025750858301515b600019600386901b1c1916600185901b1785556111af565b600085815260208120601f198616915b828110156112495788860151825594840194600190910190840161122a565b50858210156112675787850151600019600388901b60f8161c191681555b5050505050600190811b01905550565b60008251610f8d818460208701610d92565b80820180821115610a2257634e487b7160e01b600052601160045260246000fd5b6000823560be198336030181126112c057600080fd5b90910192915050565b80356001600160401b03811681146112e057600080fd5b919050565b6000808335601e198436030181126112fc57600080fd5b83016020810192503590506001600160401b0381111561131b57600080fd5b803603821315610ff357600080fd5b81835281816020850137506000828201602090810191909152601f909101601f19169091010190565b60008235601e198336030181126112c057600080fd5b600061137582836112e5565b6020855261138760208601828461132a565b95945050505050565b803582526020810135602083015260006113ac604083016112c9565b6001600160401b038082166040860152806113c9606086016112c9565b16606086015250506080820135605e198336030181126113e857600080fd5b60c0608085015282016113fb81806112e5565b606060c08701526114116101208701828461132a565b91505061142160208301836112e5565b60bf19808885030160e089015261143984838561132a565b935061144860408601866112e5565b955092508088850301610100890152505061146482848361132a565b9250505061147560a0840184611353565b84820360a08601526113878282611369565b6020815260008235601e198436030181126114a157600080fd5b83016020810190356001600160401b038111156114bd57600080fd5b8060051b8036038313156114d057600080fd5b60406020860152606085018290526001600160fb1b038211156114f257600080fd5b808360808701378401915061150c905060208501856112aa565b60608483030160408501526113876080830182611390565b60006020828403121561153657600080fd5b81518015158114610d7257600080fdfea26469706673582212205f1df245418683cb1aa319a35917d1a624a27677003a5abba5cf83b206a4256864736f6c63430008190033",
  "linkReferences": {},
  "deployedLinkReferences": {}
}