{
  "_format": "hh-sol-artifact-1",
  "contractName": "ChessTournamentFactory",
  "sourceName": "contracts/ChessTournamentFactory.sol",
  "abi": [
    {
      "inputs": [
        {
          "internalType": "address",
          "name": "_implementation",
          "type": "address"
        }
      ],
      "stateMutability": "nonpayable",
      "type": "constructor"
    },
    {
      "inputs": [],
      "name": "FailedDeployment",
      "type": "error"
    },
    {
      "inputs": [
        {
          "internalType": "uint256",
          "name": "balance",
          "type": "uint256"
        },
        {
          "internalType": "uint256",
          "name": "needed",
          "type": "uint256"
        }
      ],
      "name": "InsufficientBalance",
      "type": "error"
    },
    {
      "anonymous": false,
      "inputs": [
        {
          "indexed": true,
          "internalType": "address",
          "name": "organizer",
          "type": "address"
        },
        {
          "indexed": true,
          "internalType": "string",
          "name": "url",
          "type": "string"
        },
        {
          "indexed": false,
          "internalType": "address",
          "name": "clone",
          "type": "address"
        }
      ],
      "name": "ChessTournamentCloned",
      "type": "event"
    },
    {
      "inputs": [
        {
          "internalType": "uint256",
          "name": "",
          "type": "uint256"
        }
      ],
      "name": "allChessTournaments",
      "outputs": [
        {
          "internalType": "address",
          "name": "",
          "type": "address"
        }
      ],
      "stateMutability": "view",
      "type": "function"
    },
    {
      "inputs": [
        {
          "internalType": "string",
          "name": "_url",
          "type": "string"
        },
        {
          "internalType": "uint256",
          "name": "_fee",
          "type": "uint256"
        }
      ],
      "name": "createChessTournament",
      "outputs": [
        {
          "internalType": "address",
          "name": "clone",
          "type": "address"
        }
      ],
      "stateMutability": "nonpayable",
      "type": "function"
    },
    {
      "inputs": [],
      "name": "getAllChessTournaments",
      "outputs": [
        {
          "internalType": "address[]",
          "name": "",
          "type": "address[]"
        }
      ],
      "stateMutability": "view",
      "type": "function"
    },
    {
      "inputs": [],
      "name": "implementation",
      "outputs": [
        {
          "internalType": "address",
          "name": "",
          "type": "address"
        }
      ],
      "stateMutability": "view",
      "type": "function"
    }
  ],
  "bytecode": "0x6080604052348015600f57600080fd5b50604051610513380380610513833981016040819052602c916050565b600080546001600160a01b0319166001600160a01b0392909216919091179055607e565b600060208284031215606157600080fd5b81516001600160a01b0381168114607757600080fd5b9392505050565b6104868061008d6000396000f3fe608060405234801561001057600080fd5b506004361061004c5760003560e01c80635c60da1b14610051578063966dbf4f14610081578063c51a461f14610096578063ed53ef8e146100a9575b600080fd5b600054610064906001600160a01b031681565b6040516001600160a01b0390911681526020015b60405180910390f35b6100896100bc565b6040516100789190610318565b6100646100a4366004610365565b61011e565b6100646100b73660046103dd565b610241565b6060600180548060200260200160405190810160405280929190818152602001828054801561011457602002820191906000526020600020905b81546001600160a01b031681526001909101906020018083116100f6575b5050505050905090565b60008054610134906001600160a01b031661026b565b60405163236b26ef60e21b81529091506001600160a01b03821690638dac9bbc906101699033908890889088906004016103f6565b600060405180830381600087803b15801561018357600080fd5b505af1158015610197573d6000803e3d6000fd5b50506001805480820182556000919091527fb10e2d527612073b26eecdfd717e6a320cf44b4afac2b0732d9fcbe2b7fa0cf60180546001600160a01b0319166001600160a01b03851617905550506040516101f59085908590610440565b6040519081900381206001600160a01b03831682529033907f8d9b3a28c0cb14cd5da8ee1e41c0e7a78dc53b4ba89b8e23f15d3b24baf267609060200160405180910390a39392505050565b6001818154811061025157600080fd5b6000918252602090912001546001600160a01b0316905081565b600061027882600061027e565b92915050565b6000814710156102ae5760405163cf47918160e01b81524760048201526024810183905260440160405180910390fd5b763d602d80600a3d3981f3363d3d373d3d3d363d730000008360601b60e81c176000526e5af43d82803e903d91602b57fd5bf38360781b176020526037600983f090506001600160a01b0381166102785760405163b06ebf3d60e01b815260040160405180910390fd5b6020808252825182820181905260009190848201906040850190845b818110156103595783516001600160a01b031683529284019291840191600101610334565b50909695505050505050565b60008060006040848603121561037a57600080fd5b833567ffffffffffffffff8082111561039257600080fd5b818601915086601f8301126103a657600080fd5b8135818111156103b557600080fd5b8760208285010111156103c757600080fd5b6020928301989097509590910135949350505050565b6000602082840312156103ef57600080fd5b5035919050565b6001600160a01b038516815260606020820181905281018390528284608083013760006080848301015260006080601f19601f860116830101905082604083015295945050505050565b818382376000910190815291905056fea26469706673582212207713bf2f7d3eff6c6c42b41d235c2ac25561562137cf79d5d5faede0353fafad64736f6c63430008190033",
  "linkReferences": {},
  "deployedLinkReferences": {}
}