{
  "_format": "hh-sol-artifact-1",
  "contractName": "ChessTournamentFactory",
  "sourceName": "contracts/ChessTournamentFactory.sol",
  "abi": [
    {
      "inputs": [
        {
          "internalType": "address",
          "name": "_implementation",
          "type": "address"
        }
      ],
      "stateMutability": "nonpayable",
      "type": "constructor"
    },
    {
      "inputs": [],
      "name": "FailedDeployment",
      "type": "error"
    },
    {
      "inputs": [
        {
          "internalType": "uint256",
          "name": "balance",
          "type": "uint256"
        },
        {
          "internalType": "uint256",
          "name": "needed",
          "type": "uint256"
        }
      ],
      "name": "InsufficientBalance",
      "type": "error"
    },
    {
      "anonymous": false,
      "inputs": [
        {
          "indexed": true,
          "internalType": "address",
          "name": "organizer",
          "type": "address"
        },
        {
          "indexed": true,
          "internalType": "string",
          "name": "url",
          "type": "string"
        },
        {
          "indexed": false,
          "internalType": "address",
          "name": "clone",
          "type": "address"
        }
      ],
      "name": "ChessTournamentCloned",
      "type": "event"
    },
    {
      "inputs": [
        {
          "internalType": "uint256",
          "name": "",
          "type": "uint256"
        }
      ],
      "name": "allChessTournaments",
      "outputs": [
        {
          "internalType": "address",
          "name": "contractAddress",
          "type": "address"
        },
        {
          "internalType": "string",
          "name": "url",
          "type": "string"
        },
        {
          "internalType": "uint256",
          "name": "fee",
          "type": "uint256"
        }
      ],
      "stateMutability": "view",
      "type": "function"
    },
    {
      "inputs": [
        {
          "internalType": "string",
          "name": "_url",
          "type": "string"
        },
        {
          "internalType": "uint256",
          "name": "_fee",
          "type": "uint256"
        }
      ],
      "name": "createChessTournament",
      "outputs": [
        {
          "internalType": "address",
          "name": "clone",
          "type": "address"
        }
      ],
      "stateMutability": "nonpayable",
      "type": "function"
    },
    {
      "inputs": [],
      "name": "getAllChessTournaments",
      "outputs": [
        {
          "components": [
            {
              "internalType": "address",
              "name": "contractAddress",
              "type": "address"
            },
            {
              "internalType": "string",
              "name": "url",
              "type": "string"
            },
            {
              "internalType": "uint256",
              "name": "fee",
              "type": "uint256"
            }
          ],
          "internalType": "struct ChessTournamentFactory.Tournament[]",
          "name": "",
          "type": "tuple[]"
        }
      ],
      "stateMutability": "view",
      "type": "function"
    },
    {
      "inputs": [],
      "name": "implementation",
      "outputs": [
        {
          "internalType": "address",
          "name": "",
          "type": "address"
        }
      ],
      "stateMutability": "view",
      "type": "function"
    }
  ],
  "bytecode": "0x6080604052348015600f57600080fd5b506040516108f33803806108f3833981016040819052602c916050565b600080546001600160a01b0319166001600160a01b0392909216919091179055607e565b600060208284031215606157600080fd5b81516001600160a01b0381168114607757600080fd5b9392505050565b6108668061008d6000396000f3fe608060405234801561001057600080fd5b506004361061004c5760003560e01c80635c60da1b14610051578063966dbf4f14610081578063c51a461f14610096578063ed53ef8e146100a9575b600080fd5b600054610064906001600160a01b031681565b6040516001600160a01b0390911681526020015b60405180910390f35b6100896100cb565b6040516100789190610522565b6100646100a43660046105b0565b6101dc565b6100bc6100b7366004610628565b610367565b60405161007893929190610641565b60606001805480602002602001604051908101604052809291908181526020016000905b828210156101d357600084815260209081902060408051606081019091526003850290910180546001600160a01b03168252600181018054929391929184019161013890610675565b80601f016020809104026020016040519081016040528092919081815260200182805461016490610675565b80156101b15780601f10610186576101008083540402835291602001916101b1565b820191906000526020600020905b81548152906001019060200180831161019457829003601f168201915b50505050508152602001600282015481525050815260200190600101906100ef565b50505050905090565b600080546101f2906001600160a01b031661042f565b60405163236b26ef60e21b81529091506001600160a01b03821690638dac9bbc906102279033908890889088906004016106af565b600060405180830381600087803b15801561024157600080fd5b505af1158015610255573d6000803e3d6000fd5b5050505060016040518060600160405280836001600160a01b0316815260200186868080601f0160208091040260200160405190810160405280939291908181526020018383808284376000920182905250938552505050602091820186905283546001808201865594825290829020835160039092020180546001600160a01b0319166001600160a01b039092169190911781559082015191929091908201906103009082610760565b506040918201516002909101555161031b9085908590610820565b6040519081900381206001600160a01b03831682529033907f8d9b3a28c0cb14cd5da8ee1e41c0e7a78dc53b4ba89b8e23f15d3b24baf267609060200160405180910390a39392505050565b6001818154811061037757600080fd5b6000918252602090912060039091020180546001820180546001600160a01b039092169350906103a690610675565b80601f01602080910402602001604051908101604052809291908181526020018280546103d290610675565b801561041f5780601f106103f45761010080835404028352916020019161041f565b820191906000526020600020905b81548152906001019060200180831161040257829003601f168201915b5050505050908060020154905083565b600061043c826000610442565b92915050565b6000814710156104725760405163cf47918160e01b81524760048201526024810183905260440160405180910390fd5b763d602d80600a3d3981f3363d3d373d3d3d363d730000008360601b60e81c176000526e5af43d82803e903d91602b57fd5bf38360781b176020526037600983f090506001600160a01b03811661043c5760405163b06ebf3d60e01b815260040160405180910390fd5b6000815180845260005b81811015610502576020818501810151868301820152016104e6565b506000602082860101526020601f19601f83011685010191505092915050565b600060208083018184528085518083526040925060408601915060408160051b87010184880160005b838110156105a257888303603f19018552815180516001600160a01b0316845287810151606089860181905290610584828701826104dc565b9289015195890195909552509487019492509086019060010161054b565b509098975050505050505050565b6000806000604084860312156105c557600080fd5b833567ffffffffffffffff808211156105dd57600080fd5b818601915086601f8301126105f157600080fd5b81358181111561060057600080fd5b87602082850101111561061257600080fd5b6020928301989097509590910135949350505050565b60006020828403121561063a57600080fd5b5035919050565b6001600160a01b0384168152606060208201819052600090610665908301856104dc565b9050826040830152949350505050565b600181811c9082168061068957607f821691505b6020821081036106a957634e487b7160e01b600052602260045260246000fd5b50919050565b6001600160a01b038516815260606020820181905281018390528284608083013760006080848301015260006080601f19601f860116830101905082604083015295945050505050565b634e487b7160e01b600052604160045260246000fd5b601f82111561075b576000816000526020600020601f850160051c810160208610156107385750805b601f850160051c820191505b8181101561075757828155600101610744565b5050505b505050565b815167ffffffffffffffff81111561077a5761077a6106f9565b61078e816107888454610675565b8461070f565b602080601f8311600181146107c357600084156107ab5750858301515b600019600386901b1c1916600185901b178555610757565b600085815260208120601f198616915b828110156107f2578886015182559484019460019091019084016107d3565b50858210156108105787850151600019600388901b60f8161c191681555b5050505050600190811b01905550565b818382376000910190815291905056fea26469706673582212204dab3fe849b954222735e30206e764c1f80d2d1d6d41cef76382bc5fbe5646f364736f6c63430008190033",
  "linkReferences": {},
  "deployedLinkReferences": {}
}