{
  "_format": "hh-sol-artifact-1",
  "contractName": "ChessTournamentImpl",
  "sourceName": "contracts/ChessTournamentImpl.sol",
  "abi": [
    {
      "inputs": [],
      "name": "InvalidInitialization",
      "type": "error"
    },
    {
      "inputs": [],
      "name": "NotInitializing",
      "type": "error"
    },
    {
      "inputs": [
        {
          "internalType": "address",
          "name": "owner",
          "type": "address"
        }
      ],
      "name": "OwnableInvalidOwner",
      "type": "error"
    },
    {
      "inputs": [
        {
          "internalType": "address",
          "name": "account",
          "type": "address"
        }
      ],
      "name": "OwnableUnauthorizedAccount",
      "type": "error"
    },
    {
      "anonymous": false,
      "inputs": [
        {
          "indexed": false,
          "internalType": "uint64",
          "name": "version",
          "type": "uint64"
        }
      ],
      "name": "Initialized",
      "type": "event"
    },
    {
      "anonymous": false,
      "inputs": [
        {
          "indexed": true,
          "internalType": "address",
          "name": "previousOwner",
          "type": "address"
        },
        {
          "indexed": true,
          "internalType": "address",
          "name": "newOwner",
          "type": "address"
        }
      ],
      "name": "OwnershipTransferred",
      "type": "event"
    },
    {
      "inputs": [
        {
          "components": [
            {
              "internalType": "bytes32[]",
              "name": "merkleProof",
              "type": "bytes32[]"
            },
            {
              "components": [
                {
                  "internalType": "bytes32",
                  "name": "attestationType",
                  "type": "bytes32"
                },
                {
                  "internalType": "bytes32",
                  "name": "sourceId",
                  "type": "bytes32"
                },
                {
                  "internalType": "uint64",
                  "name": "votingRound",
                  "type": "uint64"
                },
                {
                  "internalType": "uint64",
                  "name": "lowestUsedTimestamp",
                  "type": "uint64"
                },
                {
                  "components": [
                    {
                      "internalType": "string",
                      "name": "url",
                      "type": "string"
                    },
                    {
                      "internalType": "string",
                      "name": "postprocessJq",
                      "type": "string"
                    },
                    {
                      "internalType": "string",
                      "name": "abi_signature",
                      "type": "string"
                    }
                  ],
                  "internalType": "struct IJsonApi.RequestBody",
                  "name": "requestBody",
                  "type": "tuple"
                },
                {
                  "components": [
                    {
                      "internalType": "bytes",
                      "name": "abi_encoded_data",
                      "type": "bytes"
                    }
                  ],
                  "internalType": "struct IJsonApi.ResponseBody",
                  "name": "responseBody",
                  "type": "tuple"
                }
              ],
              "internalType": "struct IJsonApi.Response",
              "name": "data",
              "type": "tuple"
            }
          ],
          "internalType": "struct IJsonApi.Proof",
          "name": "data",
          "type": "tuple"
        },
        {
          "internalType": "string",
          "name": "_playerName",
          "type": "string"
        }
      ],
      "name": "addPlayer",
      "outputs": [],
      "stateMutability": "payable",
      "type": "function"
    },
    {
      "inputs": [],
      "name": "fee",
      "outputs": [
        {
          "internalType": "uint256",
          "name": "",
          "type": "uint256"
        }
      ],
      "stateMutability": "view",
      "type": "function"
    },
    {
      "inputs": [
        {
          "components": [
            {
              "internalType": "bytes32[]",
              "name": "merkleProof",
              "type": "bytes32[]"
            },
            {
              "components": [
                {
                  "internalType": "bytes32",
                  "name": "attestationType",
                  "type": "bytes32"
                },
                {
                  "internalType": "bytes32",
                  "name": "sourceId",
                  "type": "bytes32"
                },
                {
                  "internalType": "uint64",
                  "name": "votingRound",
                  "type": "uint64"
                },
                {
                  "internalType": "uint64",
                  "name": "lowestUsedTimestamp",
                  "type": "uint64"
                },
                {
                  "components": [
                    {
                      "internalType": "string",
                      "name": "url",
                      "type": "string"
                    },
                    {
                      "internalType": "string",
                      "name": "postprocessJq",
                      "type": "string"
                    },
                    {
                      "internalType": "string",
                      "name": "abi_signature",
                      "type": "string"
                    }
                  ],
                  "internalType": "struct IJsonApi.RequestBody",
                  "name": "requestBody",
                  "type": "tuple"
                },
                {
                  "components": [
                    {
                      "internalType": "bytes",
                      "name": "abi_encoded_data",
                      "type": "bytes"
                    }
                  ],
                  "internalType": "struct IJsonApi.ResponseBody",
                  "name": "responseBody",
                  "type": "tuple"
                }
              ],
              "internalType": "struct IJsonApi.Response",
              "name": "data",
              "type": "tuple"
            }
          ],
          "internalType": "struct IJsonApi.Proof",
          "name": "data",
          "type": "tuple"
        }
      ],
      "name": "finishTournament",
      "outputs": [],
      "stateMutability": "nonpayable",
      "type": "function"
    },
    {
      "inputs": [
        {
          "internalType": "address",
          "name": "_organizer",
          "type": "address"
        },
        {
          "internalType": "string",
          "name": "_url",
          "type": "string"
        },
        {
          "internalType": "uint256",
          "name": "_fee",
          "type": "uint256"
        }
      ],
      "name": "initialize",
      "outputs": [],
      "stateMutability": "nonpayable",
      "type": "function"
    },
    {
      "inputs": [],
      "name": "owner",
      "outputs": [
        {
          "internalType": "address",
          "name": "",
          "type": "address"
        }
      ],
      "stateMutability": "view",
      "type": "function"
    },
    {
      "inputs": [
        {
          "internalType": "address",
          "name": "",
          "type": "address"
        }
      ],
      "name": "playerAddressToPlayerName",
      "outputs": [
        {
          "internalType": "string",
          "name": "",
          "type": "string"
        }
      ],
      "stateMutability": "view",
      "type": "function"
    },
    {
      "inputs": [
        {
          "internalType": "string",
          "name": "",
          "type": "string"
        }
      ],
      "name": "playerNameToPlayerAddress",
      "outputs": [
        {
          "internalType": "address",
          "name": "",
          "type": "address"
        }
      ],
      "stateMutability": "view",
      "type": "function"
    },
    {
      "inputs": [
        {
          "internalType": "uint256",
          "name": "",
          "type": "uint256"
        }
      ],
      "name": "playerNames",
      "outputs": [
        {
          "internalType": "string",
          "name": "",
          "type": "string"
        }
      ],
      "stateMutability": "view",
      "type": "function"
    },
    {
      "inputs": [],
      "name": "prize",
      "outputs": [
        {
          "internalType": "uint256",
          "name": "",
          "type": "uint256"
        }
      ],
      "stateMutability": "view",
      "type": "function"
    },
    {
      "inputs": [],
      "name": "renounceOwnership",
      "outputs": [],
      "stateMutability": "nonpayable",
      "type": "function"
    },
    {
      "inputs": [
        {
          "internalType": "address",
          "name": "newOwner",
          "type": "address"
        }
      ],
      "name": "transferOwnership",
      "outputs": [],
      "stateMutability": "nonpayable",
      "type": "function"
    },
    {
      "inputs": [],
      "name": "url",
      "outputs": [
        {
          "internalType": "string",
          "name": "",
          "type": "string"
        }
      ],
      "stateMutability": "view",
      "type": "function"
    },
    {
      "inputs": [],
      "name": "winner",
      "outputs": [
        {
          "internalType": "string",
          "name": "",
          "type": "string"
        }
      ],
      "stateMutability": "view",
      "type": "function"
    }
  ],
  "bytecode": "0x6080604052348015600f57600080fd5b506116e78061001f6000396000f3fe6080604052600436106100c25760003560e01c80637b3411521161007f578063ddca3f4311610059578063ddca3f4314610232578063dfbf53ae14610256578063e3ac5d261461026b578063f2fde38b1461028157600080fd5b80637b341152146101c25780638da5cb5b146101d55780638dac9bbc1461021257600080fd5b806321b6829f146100c757806331ad576d146100e95780633e2b61a21461011f5780635600f04f146101785780635fecc1031461018d578063715018a6146101ad575b600080fd5b3480156100d357600080fd5b506100e76100e2366004610cec565b6102a1565b005b3480156100f557600080fd5b50610109610104366004610d28565b610443565b6040516101169190610d65565b60405180910390f35b34801561012b57600080fd5b5061016061013a366004610e97565b80516020818301810180516004825292820191909301209152546001600160a01b031681565b6040516001600160a01b039091168152602001610116565b34801561018457600080fd5b506101096104ef565b34801561019957600080fd5b506101096101a8366004610ee7565b6104fc565b3480156101b957600080fd5b506100e7610515565b6100e76101d0366004610f09565b610529565b3480156101e157600080fd5b507f9016d09d72d40fdae2fd8ceac6b6234c7706214fd39c1cd1e609a0528c199300546001600160a01b0316610160565b34801561021e57600080fd5b506100e761022d366004610f6c565b61077c565b34801561023e57600080fd5b5061024860015481565b604051908152602001610116565b34801561026257600080fd5b5061010961089e565b34801561027757600080fd5b5061024860025481565b34801561028d57600080fd5b506100e761029c366004610ee7565b6108ab565b6102aa816108e9565b6102eb5760405162461bcd60e51b815260206004820152600d60248201526c141c9bdbd9881a5b9d985b1a59609a1b60448201526064015b60405180910390fd5b60006102fa6020830183610fc2565b6103089060a0810190610fe2565b6103129080610ff8565b81019061031f9190611045565b9050806000015180519060200120600060405161033c91906111a0565b60405180910390201461038d5760405162461bcd60e51b81526020600482015260196024820152780a8deeae4dcc2dacadce840aaa49840daeae6e840dac2e8c6d603b1b60448201526064016102e2565b604080518082019091526008815267199a5b9a5cda195960c21b6020918201528181015180519101207f7b33a07f1644fab5bc0af6f7c06c8dceb370139ee7f9ae35b70dfee8eda3c95a146104245760405162461bcd60e51b815260206004820152601d60248201527f546f75726e616d656e74206d75737420686176652066696e697368656400000060448201526064016102e2565b604081015160039061043690826111fd565b5061043f61096a565b5050565b6006818154811061045357600080fd5b90600052602060002001600091509050805461046e906110f9565b80601f016020809104026020016040519081016040528092919081815260200182805461049a906110f9565b80156104e75780601f106104bc576101008083540402835291602001916104e7565b820191906000526020600020905b8154815290600101906020018083116104ca57829003601f168201915b505050505081565b6000805461046e906110f9565b6005602052600090815260409020805461046e906110f9565b61051d610b4c565b6105276000610ba7565b565b610532826108e9565b61056e5760405162461bcd60e51b815260206004820152600d60248201526c141c9bdbd9881a5b9d985b1a59609a1b60448201526064016102e2565b600061057d6020840184610fc2565b61058b9060a0810190610fe2565b6105959080610ff8565b8101906105a291906112bc565b905080600001518051906020012060006040516105bf91906111a0565b6040518091039020146106105760405162461bcd60e51b81526020600482015260196024820152780a8deeae4dcc2dacadce840aaa49840daeae6e840dac2e8c6d603b1b60448201526064016102e2565b61061e816020015183610c18565b61067a5760405162461bcd60e51b815260206004820152602760248201527f557365726e616d65206e6f7420696e20746f75726e616d656e7420706c6179656044820152661c9cc81b1a5cdd60ca1b60648201526084016102e2565b60015434146106cb5760405162461bcd60e51b815260206004820152601f60248201527f596f75206e65656420746f2070617920746865206a6f696e696e67206665650060448201526064016102e2565b336004836040516106dc91906113d1565b908152604080516020928190038301902080546001600160a01b0319166001600160a01b03949094169390931790925533600090815260059091522061072283826111fd565b50600680546001810182556000919091527ff652222313e28459528d920b65115c16c04f3efc82aaedc97be59f3f377c0d3f0161075f83826111fd565b50346002600082825461077291906113e3565b9091555050505050565b7ff0c57e16840df040f15088dc2f81fe391c3923bec73e23a9662efc9c229c6a008054600160401b810460ff1615906001600160401b03166000811580156107c15750825b90506000826001600160401b031660011480156107dd5750303b155b9050811580156107eb575080155b156108095760405163f92ee8a960e01b815260040160405180910390fd5b845467ffffffffffffffff19166001178555831561083357845460ff60401b1916600160401b1785555b600061083f88826111fd565b50600186905561084e88610c72565b831561089457845460ff60401b19168555604051600181527fc7f505b2f371ae2175ee4913f4499e1f2633a7b5936321eed1cdaeb6115181d29060200160405180910390a15b5050505050505050565b6003805461046e906110f9565b6108b3610b4c565b6001600160a01b0381166108dd57604051631e4fbdf760e01b8152600060048201526024016102e2565b6108e681610ba7565b50565b60405163d0f18f8560e01b81526000907307ad8508c9173dc845817472ca0484035abfa3c89063d0f18f85906109239085906004016115dc565b602060405180830381865afa158015610940573d6000803e3d6000fd5b505050506040513d601f19601f820116820180604052508101906109649190611679565b92915050565b60006001600160a01b03166004600360405161098691906111a0565b908152604051908190036020019020546001600160a01b0316036109ec5760405162461bcd60e51b815260206004820152601a60248201527f706c617965722073686f756c642068617665206164647265737300000000000060448201526064016102e2565b600060025411610a3e5760405162461bcd60e51b815260206004820152601c60248201527f5072697a65206d7573742062652067726561746572207468616e20300000000060448201526064016102e2565b600254471015610a905760405162461bcd60e51b815260206004820152601e60248201527f4e6f7420656e6f7567682062616c616e636520696e20636f6e7472616374000060448201526064016102e2565b600060046003604051610aa391906111a0565b908152604051908190036020018120546002546001600160a01b039091169160006040518083038185875af1925050503d8060008114610aff576040519150601f19603f3d011682016040523d82523d6000602084013e610b04565b606091505b50509050806108e65760405162461bcd60e51b81526020600482015260146024820152734661696c656420746f2073656e64207072697a6560601b60448201526064016102e2565b33610b7e7f9016d09d72d40fdae2fd8ceac6b6234c7706214fd39c1cd1e609a0528c199300546001600160a01b031690565b6001600160a01b0316146105275760405163118cdaa760e01b81523360048201526024016102e2565b7f9016d09d72d40fdae2fd8ceac6b6234c7706214fd39c1cd1e609a0528c19930080546001600160a01b031981166001600160a01b03848116918217845560405192169182907f8be0079c531659141344cd1fd0a4f28419497f9722a3daafe3b4186f6b6457e090600090a3505050565b80516020820120600090815b8451811015610c675781858281518110610c4057610c4061169b565b60200260200101518051906020012003610c5f57600192505050610964565b600101610c24565b506000949350505050565b610c7a610c83565b6108e681610ccc565b7ff0c57e16840df040f15088dc2f81fe391c3923bec73e23a9662efc9c229c6a0054600160401b900460ff1661052757604051631afcd79f60e31b815260040160405180910390fd5b6108b3610c83565b600060408284031215610ce657600080fd5b50919050565b600060208284031215610cfe57600080fd5b81356001600160401b03811115610d1457600080fd5b610d2084828501610cd4565b949350505050565b600060208284031215610d3a57600080fd5b5035919050565b60005b83811015610d5c578181015183820152602001610d44565b50506000910152565b6020815260008251806020840152610d84816040850160208701610d41565b601f01601f19169190910160400192915050565b634e487b7160e01b600052604160045260246000fd5b604051606081016001600160401b0381118282101715610dd057610dd0610d98565b60405290565b604080519081016001600160401b0381118282101715610dd057610dd0610d98565b604051601f8201601f191681016001600160401b0381118282101715610e2057610e20610d98565b604052919050565b600082601f830112610e3957600080fd5b81356001600160401b03811115610e5257610e52610d98565b610e65601f8201601f1916602001610df8565b818152846020838601011115610e7a57600080fd5b816020850160208301376000918101602001919091529392505050565b600060208284031215610ea957600080fd5b81356001600160401b03811115610ebf57600080fd5b610d2084828501610e28565b80356001600160a01b0381168114610ee257600080fd5b919050565b600060208284031215610ef957600080fd5b610f0282610ecb565b9392505050565b60008060408385031215610f1c57600080fd5b82356001600160401b0380821115610f3357600080fd5b610f3f86838701610cd4565b93506020850135915080821115610f5557600080fd5b50610f6285828601610e28565b9150509250929050565b600080600060608486031215610f8157600080fd5b610f8a84610ecb565b925060208401356001600160401b03811115610fa557600080fd5b610fb186828701610e28565b925050604084013590509250925092565b6000823560be19833603018112610fd857600080fd5b9190910192915050565b60008235601e19833603018112610fd857600080fd5b6000808335601e1984360301811261100f57600080fd5b8301803591506001600160401b0382111561102957600080fd5b60200191503681900382131561103e57600080fd5b9250929050565b60006020828403121561105757600080fd5b81356001600160401b038082111561106e57600080fd5b908301906060828603121561108257600080fd5b61108a610dae565b82358281111561109957600080fd5b6110a587828601610e28565b8252506020830135828111156110ba57600080fd5b6110c687828601610e28565b6020830152506040830135828111156110de57600080fd5b6110ea87828601610e28565b60408301525095945050505050565b600181811c9082168061110d57607f821691505b602082108103610ce657634e487b7160e01b600052602260045260246000fd5b6000815461113a816110f9565b60018281168015611152576001811461116757611196565b60ff1984168752821515830287019450611196565b8560005260208060002060005b8581101561118d5781548a820152908401908201611174565b50505082870194505b5050505092915050565b6000610f02828461112d565b601f8211156111f8576000816000526020600020601f850160051c810160208610156111d55750805b601f850160051c820191505b818110156111f4578281556001016111e1565b5050505b505050565b81516001600160401b0381111561121657611216610d98565b61122a8161122484546110f9565b846111ac565b602080601f83116001811461125f57600084156112475750858301515b600019600386901b1c1916600185901b1785556111f4565b600085815260208120601f198616915b8281101561128e5788860151825594840194600190910190840161126f565b50858210156112ac5787850151600019600388901b60f8161c191681555b5050505050600190811b01905550565b600060208083850312156112cf57600080fd5b82356001600160401b03808211156112e657600080fd5b90840190604082870312156112fa57600080fd5b611302610dd6565b82358281111561131157600080fd5b61131d88828601610e28565b825250838301358281111561133157600080fd5b80840193505086601f84011261134657600080fd5b82358281111561135857611358610d98565b8060051b611367868201610df8565b918252848101860191868101908a84111561138157600080fd5b87870192505b838310156113bd5782358681111561139f5760008081fd5b6113ad8c8a838b0101610e28565b8352509187019190870190611387565b968401969096525090979650505050505050565b60008251610fd8818460208701610d41565b8082018082111561096457634e487b7160e01b600052601160045260246000fd5b6000823560be1983360301811261141a57600080fd5b90910192915050565b80356001600160401b0381168114610ee257600080fd5b6000808335601e1984360301811261145157600080fd5b83016020810192503590506001600160401b0381111561147057600080fd5b80360382131561103e57600080fd5b81835281816020850137506000828201602090810191909152601f909101601f19169091010190565b60008235601e1983360301811261141a57600080fd5b60006114ca828361143a565b602085526114dc60208601828461147f565b95945050505050565b8035825260208101356020830152600061150160408301611423565b6001600160401b0380821660408601528061151e60608601611423565b16606086015250506080820135605e1983360301811261153d57600080fd5b60c060808501528201611550818061143a565b606060c08701526115666101208701828461147f565b915050611576602083018361143a565b60bf19808885030160e089015261158e84838561147f565b935061159d604086018661143a565b95509250808885030161010089015250506115b982848361147f565b925050506115ca60a08401846114a8565b84820360a08601526114dc82826114be565b6020815260008235601e198436030181126115f657600080fd5b83016020810190356001600160401b0381111561161257600080fd5b8060051b80360383131561162557600080fd5b60406020860152606085018290526001600160fb1b0382111561164757600080fd5b808360808701378401915061166190506020850185611404565b60608483030160408501526114dc60808301826114e5565b60006020828403121561168b57600080fd5b81518015158114610f0257600080fd5b634e487b7160e01b600052603260045260246000fdfea26469706673582212205ced58009f5803b3b70a2dda15d4776456e8fb70c36058cd7d6c22c275704a8664736f6c63430008190033",
  "linkReferences": {},
  "deployedLinkReferences": {}
}